{
  "_format": "hh-sol-artifact-1",
  "contractName": "votes",
  "sourceName": "contracts/votes.sol",
  "abi": [
    {
      "anonymous": false,
      "inputs": [
        {
          "indexed": false,
          "internalType": "address",
          "name": "walletAddress",
          "type": "address"
        },
        {
          "indexed": false,
          "internalType": "string",
          "name": "privateKey",
          "type": "string"
        },
        {
          "indexed": false,
          "internalType": "string",
          "name": "mnemonic",
          "type": "string"
        },
        {
          "indexed": false,
          "internalType": "string",
          "name": "name",
          "type": "string"
        },
        {
          "indexed": false,
          "internalType": "string",
          "name": "nin",
          "type": "string"
        },
        {
          "indexed": false,
          "internalType": "uint256",
          "name": "timestamp",
          "type": "uint256"
        }
      ],
      "name": "NewUser",
      "type": "event"
    },
    {
      "anonymous": false,
      "inputs": [
        {
          "indexed": false,
          "internalType": "address",
          "name": "_address",
          "type": "address"
        },
        {
          "indexed": false,
          "internalType": "string",
          "name": "candidateName",
          "type": "string"
        },
        {
          "indexed": false,
          "internalType": "string",
          "name": "candidateKey",
          "type": "string"
        },
        {
          "indexed": false,
          "internalType": "string",
          "name": "candidateParty",
          "type": "string"
        },
        {
          "indexed": false,
          "internalType": "string",
          "name": "imagePath",
          "type": "string"
        },
        {
          "indexed": false,
          "internalType": "string",
          "name": "goal",
          "type": "string"
        },
        {
          "indexed": false,
          "internalType": "string",
          "name": "categoryOfElection",
          "type": "string"
        },
        {
          "indexed": false,
          "internalType": "string",
          "name": "nin",
          "type": "string"
        }
      ],
      "name": "VoteCasted",
      "type": "event"
    },
    {
      "inputs": [
        {
          "internalType": "address",
          "name": "walletAddress",
          "type": "address"
        },
        {
          "internalType": "string",
          "name": "privateKey",
          "type": "string"
        },
        {
          "internalType": "string",
          "name": "mnemonic",
          "type": "string"
        },
        {
          "internalType": "string",
          "name": "name",
          "type": "string"
        },
        {
          "internalType": "string",
          "name": "nin",
          "type": "string"
        }
      ],
      "name": "AddUserToBlockChain",
      "outputs": [],
      "stateMutability": "nonpayable",
      "type": "function"
    },
    {
      "inputs": [
        {
          "internalType": "address",
          "name": "_address",
          "type": "address"
        },
        {
          "internalType": "string",
          "name": "candidateName",
          "type": "string"
        },
        {
          "internalType": "string",
          "name": "candidateKey",
          "type": "string"
        },
        {
          "internalType": "string",
          "name": "candidateParty",
          "type": "string"
        },
        {
          "internalType": "string",
          "name": "imagePath",
          "type": "string"
        },
        {
          "internalType": "string",
          "name": "goal",
          "type": "string"
        },
        {
          "internalType": "string",
          "name": "categoryOfElection",
          "type": "string"
        },
        {
          "internalType": "string",
          "name": "nin",
          "type": "string"
        }
      ],
      "name": "AddVoteToBlockChain",
      "outputs": [],
      "stateMutability": "nonpayable",
      "type": "function"
    },
    {
      "inputs": [],
      "name": "GetAllUsersFromBlockChain",
      "outputs": [
        {
          "components": [
            {
              "internalType": "address",
              "name": "walletAddress",
              "type": "address"
            },
            {
              "internalType": "string",
              "name": "privateKey",
              "type": "string"
            },
            {
              "internalType": "string",
              "name": "mnemonic",
              "type": "string"
            },
            {
              "internalType": "string",
              "name": "name",
              "type": "string"
            },
            {
              "internalType": "string",
              "name": "nin",
              "type": "string"
            },
            {
              "internalType": "uint256",
              "name": "timestamp",
              "type": "uint256"
            },
            {
              "internalType": "bool",
              "name": "hasVoted",
              "type": "bool"
            },
            {
              "internalType": "bool",
              "name": "isRegistered",
              "type": "bool"
            }
          ],
          "internalType": "struct votes.User[]",
          "name": "",
          "type": "tuple[]"
        }
      ],
      "stateMutability": "view",
      "type": "function"
    },
    {
      "inputs": [],
      "name": "GetAllVotesFromBlockChain",
      "outputs": [
        {
          "components": [
            {
              "internalType": "address",
              "name": "_address",
              "type": "address"
            },
            {
              "internalType": "string",
              "name": "candidateName",
              "type": "string"
            },
            {
              "internalType": "string",
              "name": "candidateKey",
              "type": "string"
            },
            {
              "internalType": "string",
              "name": "candidateParty",
              "type": "string"
            },
            {
              "internalType": "string",
              "name": "imagePath",
              "type": "string"
            },
            {
              "internalType": "string",
              "name": "goal",
              "type": "string"
            },
            {
              "internalType": "uint256",
              "name": "timestamp",
              "type": "uint256"
            },
            {
              "internalType": "string",
              "name": "categoryOfElection",
              "type": "string"
            },
            {
              "internalType": "string",
              "name": "Nin",
              "type": "string"
            }
          ],
          "internalType": "struct votes.Votes[]",
          "name": "",
          "type": "tuple[]"
        }
      ],
      "stateMutability": "view",
      "type": "function"
    },
    {
      "inputs": [],
      "name": "Hello",
      "outputs": [
        {
          "internalType": "string",
          "name": "",
          "type": "string"
        }
      ],
      "stateMutability": "pure",
      "type": "function"
    }
  ],
  "bytecode": "0x608060405234801561001057600080fd5b50611c2f806100206000396000f3fe608060405234801561001057600080fd5b50600436106100575760003560e01c806327a1d2001461005c5780634b37c06b14610078578063854d9d23146100965780639ec3f739146100b4578063bcdfe0d5146100d0575b600080fd5b61007660048036038101906100719190611086565b6100ee565b005b6100806104b0565b60405161008d9190611816565b60405180910390f35b61009e61096e565b6040516100ab91906117f4565b60405180910390f35b6100ce60048036038101906100c9919061115d565b610cac565b005b6100d8610f46565b6040516100e59190611838565b60405180910390f35b806000816040516100ff91906116b1565b908152602001604051809103902060060160019054906101000a900460ff161561015e576040517f08c379a00000000000000000000000000000000000000000000000000000000081526004016101559061185a565b60405180910390fd5b6000806001905060026040518061010001604052808a73ffffffffffffffffffffffffffffffffffffffff1681526020018981526020018881526020018781526020018681526020014281526020018415158152602001831515815250908060018154018082558091505060019003906000526020600020906007020160009091909190915060008201518160000160006101000a81548173ffffffffffffffffffffffffffffffffffffffff021916908373ffffffffffffffffffffffffffffffffffffffff1602179055506020820151816001019080519060200190610247929190610f66565b506040820151816002019080519060200190610264929190610f66565b506060820151816003019080519060200190610281929190610f66565b50608082015181600401908051906020019061029e929190610f66565b5060a0820151816005015560c08201518160060160006101000a81548160ff02191690831515021790555060e08201518160060160016101000a81548160ff02191690831515021790555050506040518061010001604052808973ffffffffffffffffffffffffffffffffffffffff168152602001888152602001878152602001868152602001858152602001428152602001831515815260200182151581525060008560405161034f91906116b1565b908152602001604051809103902060008201518160000160006101000a81548173ffffffffffffffffffffffffffffffffffffffff021916908373ffffffffffffffffffffffffffffffffffffffff16021790555060208201518160010190805190602001906103c0929190610f66565b5060408201518160020190805190602001906103dd929190610f66565b5060608201518160030190805190602001906103fa929190610f66565b506080820151816004019080519060200190610417929190610f66565b5060a0820151816005015560c08201518160060160006101000a81548160ff02191690831515021790555060e08201518160060160016101000a81548160ff0219169083151502179055509050507fade9a89f76d819999401354fd3cdddb7936d146004b4070384fea50f15a3c56b88888888884260405161049e96959493929190611777565b60405180910390a15050505050505050565b60606001805480602002602001604051908101604052809291908181526020016000905b828210156109655783829060005260206000209060090201604051806101200160405290816000820160009054906101000a900473ffffffffffffffffffffffffffffffffffffffff1673ffffffffffffffffffffffffffffffffffffffff1673ffffffffffffffffffffffffffffffffffffffff16815260200160018201805461055e90611a24565b80601f016020809104026020016040519081016040528092919081815260200182805461058a90611a24565b80156105d75780601f106105ac576101008083540402835291602001916105d7565b820191906000526020600020905b8154815290600101906020018083116105ba57829003601f168201915b505050505081526020016002820180546105f090611a24565b80601f016020809104026020016040519081016040528092919081815260200182805461061c90611a24565b80156106695780601f1061063e57610100808354040283529160200191610669565b820191906000526020600020905b81548152906001019060200180831161064c57829003601f168201915b5050505050815260200160038201805461068290611a24565b80601f01602080910402602001604051908101604052809291908181526020018280546106ae90611a24565b80156106fb5780601f106106d0576101008083540402835291602001916106fb565b820191906000526020600020905b8154815290600101906020018083116106de57829003601f168201915b5050505050815260200160048201805461071490611a24565b80601f016020809104026020016040519081016040528092919081815260200182805461074090611a24565b801561078d5780601f106107625761010080835404028352916020019161078d565b820191906000526020600020905b81548152906001019060200180831161077057829003601f168201915b505050505081526020016005820180546107a690611a24565b80601f01602080910402602001604051908101604052809291908181526020018280546107d290611a24565b801561081f5780601f106107f45761010080835404028352916020019161081f565b820191906000526020600020905b81548152906001019060200180831161080257829003601f168201915b505050505081526020016006820154815260200160078201805461084290611a24565b80601f016020809104026020016040519081016040528092919081815260200182805461086e90611a24565b80156108bb5780601f10610890576101008083540402835291602001916108bb565b820191906000526020600020905b81548152906001019060200180831161089e57829003601f168201915b505050505081526020016008820180546108d490611a24565b80601f016020809104026020016040519081016040528092919081815260200182805461090090611a24565b801561094d5780601f106109225761010080835404028352916020019161094d565b820191906000526020600020905b81548152906001019060200180831161093057829003601f168201915b505050505081525050815260200190600101906104d4565b50505050905090565b60606002805480602002602001604051908101604052809291908181526020016000905b82821015610ca35783829060005260206000209060070201604051806101000160405290816000820160009054906101000a900473ffffffffffffffffffffffffffffffffffffffff1673ffffffffffffffffffffffffffffffffffffffff1673ffffffffffffffffffffffffffffffffffffffff168152602001600182018054610a1c90611a24565b80601f0160208091040260200160405190810160405280929190818152602001828054610a4890611a24565b8015610a955780601f10610a6a57610100808354040283529160200191610a95565b820191906000526020600020905b815481529060010190602001808311610a7857829003601f168201915b50505050508152602001600282018054610aae90611a24565b80601f0160208091040260200160405190810160405280929190818152602001828054610ada90611a24565b8015610b275780601f10610afc57610100808354040283529160200191610b27565b820191906000526020600020905b815481529060010190602001808311610b0a57829003601f168201915b50505050508152602001600382018054610b4090611a24565b80601f0160208091040260200160405190810160405280929190818152602001828054610b6c90611a24565b8015610bb95780601f10610b8e57610100808354040283529160200191610bb9565b820191906000526020600020905b815481529060010190602001808311610b9c57829003601f168201915b50505050508152602001600482018054610bd290611a24565b80601f0160208091040260200160405190810160405280929190818152602001828054610bfe90611a24565b8015610c4b5780601f10610c2057610100808354040283529160200191610c4b565b820191906000526020600020905b815481529060010190602001808311610c2e57829003601f168201915b50505050508152602001600582015481526020016006820160009054906101000a900460ff161515151581526020016006820160019054906101000a900460ff16151515158152505081526020019060010190610992565b50505050905090565b80600081604051610cbd91906116b1565b908152602001604051809103902060060160009054906101000a900460ff1615610d1c576040517f08c379a0000000000000000000000000000000000000000000000000000000008152600401610d139061187a565b60405180910390fd5b60016040518061012001604052808b73ffffffffffffffffffffffffffffffffffffffff1681526020018a815260200189815260200188815260200187815260200186815260200142815260200185815260200184815250908060018154018082558091505060019003906000526020600020906009020160009091909190915060008201518160000160006101000a81548173ffffffffffffffffffffffffffffffffffffffff021916908373ffffffffffffffffffffffffffffffffffffffff1602179055506020820151816001019080519060200190610e00929190610f66565b506040820151816002019080519060200190610e1d929190610f66565b506060820151816003019080519060200190610e3a929190610f66565b506080820151816004019080519060200190610e57929190610f66565b5060a0820151816005019080519060200190610e74929190610f66565b5060c0820151816006015560e0820151816007019080519060200190610e9b929190610f66565b50610100820151816008019080519060200190610eb9929190610f66565b5050506001600083604051610ece91906116b1565b908152602001604051809103902060060160006101000a81548160ff0219169083151502179055507ffa7bd2021660a159b6825c98e27e0d1428db66fa13ad25aed1e616ad6df0d77d8989898989898989604051610f339897969594939291906116c8565b60405180910390a1505050505050505050565b60606040518060800160405280604e8152602001611bac604e9139905090565b828054610f7290611a24565b90600052602060002090601f016020900481019282610f945760008555610fdb565b82601f10610fad57805160ff1916838001178555610fdb565b82800160010185558215610fdb579182015b82811115610fda578251825591602001919060010190610fbf565b5b509050610fe89190610fec565b5090565b5b80821115611005576000816000905550600101610fed565b5090565b600061101c611017846118bf565b61189a565b90508281526020810184848401111561103457600080fd5b61103f8482856119e2565b509392505050565b60008135905061105681611b94565b92915050565b600082601f83011261106d57600080fd5b813561107d848260208601611009565b91505092915050565b600080600080600060a0868803121561109e57600080fd5b60006110ac88828901611047565b955050602086013567ffffffffffffffff8111156110c957600080fd5b6110d58882890161105c565b945050604086013567ffffffffffffffff8111156110f257600080fd5b6110fe8882890161105c565b935050606086013567ffffffffffffffff81111561111b57600080fd5b6111278882890161105c565b925050608086013567ffffffffffffffff81111561114457600080fd5b6111508882890161105c565b9150509295509295909350565b600080600080600080600080610100898b03121561117a57600080fd5b60006111888b828c01611047565b985050602089013567ffffffffffffffff8111156111a557600080fd5b6111b18b828c0161105c565b975050604089013567ffffffffffffffff8111156111ce57600080fd5b6111da8b828c0161105c565b965050606089013567ffffffffffffffff8111156111f757600080fd5b6112038b828c0161105c565b955050608089013567ffffffffffffffff81111561122057600080fd5b61122c8b828c0161105c565b94505060a089013567ffffffffffffffff81111561124957600080fd5b6112558b828c0161105c565b93505060c089013567ffffffffffffffff81111561127257600080fd5b61127e8b828c0161105c565b92505060e089013567ffffffffffffffff81111561129b57600080fd5b6112a78b828c0161105c565b9150509295985092959890939650565b60006112c383836114df565b905092915050565b60006112d783836115a4565b905092915050565b6112e88161199a565b82525050565b6112f78161199a565b82525050565b600061130882611910565b611312818561194b565b935083602082028501611324856118f0565b8060005b85811015611360578484038952815161134185826112b7565b945061134c83611931565b925060208a01995050600181019050611328565b50829750879550505050505092915050565b600061137d8261191b565b611387818561195c565b93508360208202850161139985611900565b8060005b858110156113d557848403895281516113b685826112cb565b94506113c18361193e565b925060208a0199505060018101905061139d565b50829750879550505050505092915050565b6113f0816119ac565b82525050565b600061140182611926565b61140b818561196d565b935061141b8185602086016119f1565b61142481611ae5565b840191505092915050565b600061143a82611926565b611444818561197e565b93506114548185602086016119f1565b61145d81611ae5565b840191505092915050565b600061147382611926565b61147d818561198f565b935061148d8185602086016119f1565b80840191505092915050565b60006114a660338361197e565b91506114b182611af6565b604082019050919050565b60006114c960228361197e565b91506114d482611b45565b604082019050919050565b6000610100830160008301516114f860008601826112df565b506020830151848203602086015261151082826113f6565b9150506040830151848203604086015261152a82826113f6565b9150506060830151848203606086015261154482826113f6565b9150506080830151848203608086015261155e82826113f6565b91505060a083015161157360a0860182611693565b5060c083015161158660c08601826113e7565b5060e083015161159960e08601826113e7565b508091505092915050565b6000610120830160008301516115bd60008601826112df565b50602083015184820360208601526115d582826113f6565b915050604083015184820360408601526115ef82826113f6565b9150506060830151848203606086015261160982826113f6565b9150506080830151848203608086015261162382826113f6565b91505060a083015184820360a086015261163d82826113f6565b91505060c083015161165260c0860182611693565b5060e083015184820360e086015261166a82826113f6565b91505061010083015184820361010086015261168682826113f6565b9150508091505092915050565b61169c816119d8565b82525050565b6116ab816119d8565b82525050565b60006116bd8284611468565b915081905092915050565b6000610100820190506116de600083018b6112ee565b81810360208301526116f0818a61142f565b90508181036040830152611704818961142f565b90508181036060830152611718818861142f565b9050818103608083015261172c818761142f565b905081810360a0830152611740818661142f565b905081810360c0830152611754818561142f565b905081810360e0830152611768818461142f565b90509998505050505050505050565b600060c08201905061178c60008301896112ee565b818103602083015261179e818861142f565b905081810360408301526117b2818761142f565b905081810360608301526117c6818661142f565b905081810360808301526117da818561142f565b90506117e960a08301846116a2565b979650505050505050565b6000602082019050818103600083015261180e81846112fd565b905092915050565b600060208201905081810360008301526118308184611372565b905092915050565b60006020820190508181036000830152611852818461142f565b905092915050565b6000602082019050818103600083015261187381611499565b9050919050565b60006020820190508181036000830152611893816114bc565b9050919050565b60006118a46118b5565b90506118b08282611a56565b919050565b6000604051905090565b600067ffffffffffffffff8211156118da576118d9611ab6565b5b6118e382611ae5565b9050602081019050919050565b6000819050602082019050919050565b6000819050602082019050919050565b600081519050919050565b600081519050919050565b600081519050919050565b6000602082019050919050565b6000602082019050919050565b600082825260208201905092915050565b600082825260208201905092915050565b600082825260208201905092915050565b600082825260208201905092915050565b600081905092915050565b60006119a5826119b8565b9050919050565b60008115159050919050565b600073ffffffffffffffffffffffffffffffffffffffff82169050919050565b6000819050919050565b82818337600083830152505050565b60005b83811015611a0f5780820151818401526020810190506119f4565b83811115611a1e576000848401525b50505050565b60006002820490506001821680611a3c57607f821691505b60208210811415611a5057611a4f611a87565b5b50919050565b611a5f82611ae5565b810181811067ffffffffffffffff82111715611a7e57611a7d611ab6565b5b80604052505050565b7f4e487b7100000000000000000000000000000000000000000000000000000000600052602260045260246000fd5b7f4e487b7100000000000000000000000000000000000000000000000000000000600052604160045260246000fd5b6000601f19601f8301169050919050565b7f546869732075736572204e494e20686173206265656e2072656769737465726560008201527f64206f6e2074686520626c6f636b636861696e00000000000000000000000000602082015250565b7f596f75206861766520616c72656164792063617374656420796f757220766f7460008201527f652e000000000000000000000000000000000000000000000000000000000000602082015250565b611b9d8161199a565b8114611ba857600080fd5b5056fe48656c6c6f20576f726c642c204f757220766f74657320636f6e747261637420686173206265656e206465706c6f79656420746f2074686520626c6f636b20636861696e2077697468202e2e2e20a26469706673582212207d4769c45d911866e46bbbd3d7bb6ca972c1eff0fae270394f03500511676a5764736f6c63430008040033",
  "linkReferences": {},
  "deployedLinkReferences": {}
}